{
  "_format": "hh-sol-artifact-1",
  "contractName": "HeroFactory",
  "sourceName": "contracts/PackFactory.sol",
  "abi": [
    {
      "inputs": [
        {
          "internalType": "address",
          "name": "_treasuryAddr",
          "type": "address"
        },
        {
          "internalType": "uint256",
          "name": "_mintLimit",
          "type": "uint256"
        }
      ],
      "stateMutability": "nonpayable",
      "type": "constructor"
    },
    {
      "anonymous": false,
      "inputs": [
        {
          "indexed": true,
          "internalType": "address",
          "name": "owner",
          "type": "address"
        },
        {
          "indexed": true,
          "internalType": "address",
          "name": "approved",
          "type": "address"
        },
        {
          "indexed": true,
          "internalType": "uint256",
          "name": "tokenId",
          "type": "uint256"
        }
      ],
      "name": "Approval",
      "type": "event"
    },
    {
      "anonymous": false,
      "inputs": [
        {
          "indexed": true,
          "internalType": "address",
          "name": "owner",
          "type": "address"
        },
        {
          "indexed": true,
          "internalType": "address",
          "name": "operator",
          "type": "address"
        },
        {
          "indexed": false,
          "internalType": "bool",
          "name": "approved",
          "type": "bool"
        }
      ],
      "name": "ApprovalForAll",
      "type": "event"
    },
    {
      "anonymous": false,
      "inputs": [
        {
          "indexed": false,
          "internalType": "address",
          "name": "owner",
          "type": "address"
        },
        {
          "indexed": false,
          "internalType": "uint256",
          "name": "heroId",
          "type": "uint256"
        },
        {
          "indexed": false,
          "internalType": "uint256",
          "name": "date",
          "type": "uint256"
        }
      ],
      "name": "HeroCreated",
      "type": "event"
    },
    {
      "anonymous": false,
      "inputs": [
        {
          "indexed": false,
          "internalType": "address",
          "name": "owner",
          "type": "address"
        },
        {
          "indexed": false,
          "internalType": "uint256",
          "name": "heroId",
          "type": "uint256"
        },
        {
          "indexed": false,
          "internalType": "uint256",
          "name": "date",
          "type": "uint256"
        }
      ],
      "name": "HeroUpdated",
      "type": "event"
    },
    {
      "anonymous": false,
      "inputs": [
        {
          "indexed": false,
          "internalType": "uint256",
          "name": "newLimit",
          "type": "uint256"
        }
      ],
      "name": "NewLimit",
      "type": "event"
    },
    {
      "anonymous": false,
      "inputs": [
        {
          "indexed": true,
          "internalType": "address",
          "name": "previousOwner",
          "type": "address"
        },
        {
          "indexed": true,
          "internalType": "address",
          "name": "newOwner",
          "type": "address"
        }
      ],
      "name": "OwnershipTransferred",
      "type": "event"
    },
    {
      "anonymous": false,
      "inputs": [
        {
          "indexed": false,
          "internalType": "address",
          "name": "stakingContract",
          "type": "address"
        }
      ],
      "name": "StakingContract",
      "type": "event"
    },
    {
      "anonymous": false,
      "inputs": [
        {
          "indexed": true,
          "internalType": "address",
          "name": "from",
          "type": "address"
        },
        {
          "indexed": true,
          "internalType": "address",
          "name": "to",
          "type": "address"
        },
        {
          "indexed": true,
          "internalType": "uint256",
          "name": "tokenId",
          "type": "uint256"
        }
      ],
      "name": "Transfer",
      "type": "event"
    },
    {
      "inputs": [
        {
          "internalType": "address",
          "name": "_approved",
          "type": "address"
        },
        {
          "internalType": "uint256",
          "name": "_tokenId",
          "type": "uint256"
        }
      ],
      "name": "approve",
      "outputs": [],
      "stateMutability": "nonpayable",
      "type": "function"
    },
    {
      "inputs": [
        {
          "internalType": "address",
          "name": "owner",
          "type": "address"
        }
      ],
      "name": "balanceOf",
      "outputs": [
        {
          "internalType": "uint256",
          "name": "balance",
          "type": "uint256"
        }
      ],
      "stateMutability": "view",
      "type": "function"
    },
    {
      "inputs": [
        {
          "internalType": "uint128",
          "name": "_dna",
          "type": "uint128"
        }
      ],
      "name": "calculateRarityScore",
      "outputs": [
        {
          "internalType": "uint128",
          "name": "",
          "type": "uint128"
        }
      ],
      "stateMutability": "pure",
      "type": "function"
    },
    {
      "inputs": [
        {
          "internalType": "uint256",
          "name": "_times",
          "type": "uint256"
        }
      ],
      "name": "createHeros",
      "outputs": [],
      "stateMutability": "payable",
      "type": "function"
    },
    {
      "inputs": [],
      "name": "createHerosPack",
      "outputs": [],
      "stateMutability": "payable",
      "type": "function"
    },
    {
      "inputs": [
        {
          "internalType": "uint256",
          "name": "_tokenId",
          "type": "uint256"
        }
      ],
      "name": "getApproved",
      "outputs": [
        {
          "internalType": "address",
          "name": "",
          "type": "address"
        }
      ],
      "stateMutability": "view",
      "type": "function"
    },
    {
      "inputs": [
        {
          "internalType": "uint256",
          "name": "_heroId",
          "type": "uint256"
        }
      ],
      "name": "getHero",
      "outputs": [
        {
          "internalType": "uint256",
          "name": "heroId",
          "type": "uint256"
        },
        {
          "internalType": "uint16",
          "name": "rarityScore",
          "type": "uint16"
        },
        {
          "internalType": "uint128",
          "name": "dna",
          "type": "uint128"
        },
        {
          "internalType": "uint8[15]",
          "name": "Genes",
          "type": "uint8[15]"
        },
        {
          "internalType": "uint64",
          "name": "createdTime",
          "type": "uint64"
        },
        {
          "internalType": "address",
          "name": "owner",
          "type": "address"
        }
      ],
      "stateMutability": "view",
      "type": "function"
    },
    {
      "inputs": [
        {
          "internalType": "address",
          "name": "_addr",
          "type": "address"
        }
      ],
      "name": "getHeroCount",
      "outputs": [
        {
          "internalType": "uint256",
          "name": "count",
          "type": "uint256"
        }
      ],
      "stateMutability": "view",
      "type": "function"
    },
    {
      "inputs": [
        {
          "internalType": "uint256",
          "name": "_heroId",
          "type": "uint256"
        }
      ],
      "name": "getRarity",
      "outputs": [
        {
          "internalType": "uint256",
          "name": "",
          "type": "uint256"
        }
      ],
      "stateMutability": "view",
      "type": "function"
    },
    {
      "inputs": [
        {
          "internalType": "uint256",
          "name": "",
          "type": "uint256"
        }
      ],
      "name": "heroToApproved",
      "outputs": [
        {
          "internalType": "address",
          "name": "",
          "type": "address"
        }
      ],
      "stateMutability": "view",
      "type": "function"
    },
    {
      "inputs": [
        {
          "internalType": "address",
          "name": "_ownerInput",
          "type": "address"
        }
      ],
      "name": "herosOf",
      "outputs": [
        {
          "internalType": "uint256[]",
          "name": "",
          "type": "uint256[]"
        }
      ],
      "stateMutability": "view",
      "type": "function"
    },
    {
      "inputs": [
        {
          "internalType": "uint8",
          "name": "x",
          "type": "uint8"
        }
      ],
      "name": "incF",
      "outputs": [
        {
          "internalType": "uint8",
          "name": "",
          "type": "uint8"
        }
      ],
      "stateMutability": "pure",
      "type": "function"
    },
    {
      "inputs": [
        {
          "internalType": "uint256",
          "name": "_heroId",
          "type": "uint256"
        }
      ],
      "name": "isApproved",
      "outputs": [
        {
          "internalType": "bool",
          "name": "",
          "type": "bool"
        }
      ],
      "stateMutability": "view",
      "type": "function"
    },
    {
      "inputs": [
        {
          "internalType": "address",
          "name": "_owner",
          "type": "address"
        },
        {
          "internalType": "address",
          "name": "_operator",
          "type": "address"
        }
      ],
      "name": "isApprovedForAll",
      "outputs": [
        {
          "internalType": "bool",
          "name": "",
          "type": "bool"
        }
      ],
      "stateMutability": "view",
      "type": "function"
    },
    {
      "inputs": [
        {
          "internalType": "uint256",
          "name": "_heroId",
          "type": "uint256"
        }
      ],
      "name": "isApprovedOperatorOf",
      "outputs": [
        {
          "internalType": "bool",
          "name": "",
          "type": "bool"
        }
      ],
      "stateMutability": "view",
      "type": "function"
    },
    {
      "inputs": [],
      "name": "mintLimit",
      "outputs": [
        {
          "internalType": "uint256",
          "name": "",
          "type": "uint256"
        }
      ],
      "stateMutability": "view",
      "type": "function"
    },
    {
      "inputs": [],
      "name": "name",
      "outputs": [
        {
          "internalType": "string",
          "name": "tokenName",
          "type": "string"
        }
      ],
      "stateMutability": "pure",
      "type": "function"
    },
    {
      "inputs": [],
      "name": "owner",
      "outputs": [
        {
          "internalType": "address",
          "name": "",
          "type": "address"
        }
      ],
      "stateMutability": "view",
      "type": "function"
    },
    {
      "inputs": [
        {
          "internalType": "uint256",
          "name": "_tokenId",
          "type": "uint256"
        }
      ],
      "name": "ownerOf",
      "outputs": [
        {
          "internalType": "address",
          "name": "owner",
          "type": "address"
        }
      ],
      "stateMutability": "view",
      "type": "function"
    },
    {
      "inputs": [],
      "name": "price",
      "outputs": [
        {
          "internalType": "uint256",
          "name": "",
          "type": "uint256"
        }
      ],
      "stateMutability": "view",
      "type": "function"
    },
    {
      "inputs": [],
      "name": "randNonce",
      "outputs": [
        {
          "internalType": "uint256",
          "name": "",
          "type": "uint256"
        }
      ],
      "stateMutability": "view",
      "type": "function"
    },
    {
      "inputs": [
        {
          "internalType": "uint256",
          "name": "",
          "type": "uint256"
        }
      ],
      "name": "rarityScores",
      "outputs": [
        {
          "internalType": "uint256",
          "name": "",
          "type": "uint256"
        }
      ],
      "stateMutability": "view",
      "type": "function"
    },
    {
      "inputs": [],
      "name": "renounceOwnership",
      "outputs": [],
      "stateMutability": "nonpayable",
      "type": "function"
    },
    {
      "inputs": [],
      "name": "rewardPerNFT",
      "outputs": [
        {
          "internalType": "uint256",
          "name": "",
          "type": "uint256"
        }
      ],
      "stateMutability": "view",
      "type": "function"
    },
    {
      "inputs": [],
      "name": "rewardPerStage",
      "outputs": [
        {
          "internalType": "uint256",
          "name": "",
          "type": "uint256"
        }
      ],
      "stateMutability": "view",
      "type": "function"
    },
    {
      "inputs": [
        {
          "internalType": "address",
          "name": "_from",
          "type": "address"
        },
        {
          "internalType": "address",
          "name": "_to",
          "type": "address"
        },
        {
          "internalType": "uint256",
          "name": "_tokenId",
          "type": "uint256"
        }
      ],
      "name": "safeTransferFrom",
      "outputs": [],
      "stateMutability": "nonpayable",
      "type": "function"
    },
    {
      "inputs": [
        {
          "internalType": "address",
          "name": "_from",
          "type": "address"
        },
        {
          "internalType": "address",
          "name": "_to",
          "type": "address"
        },
        {
          "internalType": "uint256",
          "name": "_tokenId",
          "type": "uint256"
        },
        {
          "internalType": "bytes",
          "name": "_data",
          "type": "bytes"
        }
      ],
      "name": "safeTransferFrom",
      "outputs": [],
      "stateMutability": "nonpayable",
      "type": "function"
    },
    {
      "inputs": [
        {
          "internalType": "address",
          "name": "_operator",
          "type": "address"
        },
        {
          "internalType": "bool",
          "name": "_approved",
          "type": "bool"
        }
      ],
      "name": "setApprovalForAll",
      "outputs": [],
      "stateMutability": "nonpayable",
      "type": "function"
    },
    {
      "inputs": [
        {
          "internalType": "string",
          "name": "_tokenURI",
          "type": "string"
        }
      ],
      "name": "setHeroBaseURI",
      "outputs": [],
      "stateMutability": "nonpayable",
      "type": "function"
    },
    {
      "inputs": [],
      "name": "stakingContractAddr",
      "outputs": [
        {
          "internalType": "address",
          "name": "",
          "type": "address"
        }
      ],
      "stateMutability": "view",
      "type": "function"
    },
    {
      "inputs": [
        {
          "internalType": "bytes4",
          "name": "interfaceId",
          "type": "bytes4"
        }
      ],
      "name": "supportsInterface",
      "outputs": [
        {
          "internalType": "bool",
          "name": "",
          "type": "bool"
        }
      ],
      "stateMutability": "view",
      "type": "function"
    },
    {
      "inputs": [],
      "name": "symbol",
      "outputs": [
        {
          "internalType": "string",
          "name": "tokenSymbol",
          "type": "string"
        }
      ],
      "stateMutability": "pure",
      "type": "function"
    },
    {
      "inputs": [
        {
          "internalType": "uint256",
          "name": "tokenId",
          "type": "uint256"
        }
      ],
      "name": "tokenURI",
      "outputs": [
        {
          "internalType": "string",
          "name": "",
          "type": "string"
        }
      ],
      "stateMutability": "view",
      "type": "function"
    },
    {
      "inputs": [],
      "name": "totalSupply",
      "outputs": [
        {
          "internalType": "uint256",
          "name": "total",
          "type": "uint256"
        }
      ],
      "stateMutability": "view",
      "type": "function"
    },
    {
      "inputs": [
        {
          "internalType": "address",
          "name": "_to",
          "type": "address"
        },
        {
          "internalType": "uint256",
          "name": "_tokenId",
          "type": "uint256"
        }
      ],
      "name": "transfer",
      "outputs": [],
      "stateMutability": "nonpayable",
      "type": "function"
    },
    {
      "inputs": [
        {
          "internalType": "address",
          "name": "_from",
          "type": "address"
        },
        {
          "internalType": "address",
          "name": "_to",
          "type": "address"
        },
        {
          "internalType": "uint256",
          "name": "_tokenId",
          "type": "uint256"
        }
      ],
      "name": "transferFrom",
      "outputs": [],
      "stateMutability": "nonpayable",
      "type": "function"
    },
    {
      "inputs": [
        {
          "internalType": "address",
          "name": "newOwner",
          "type": "address"
        }
      ],
      "name": "transferOwnership",
      "outputs": [],
      "stateMutability": "nonpayable",
      "type": "function"
    },
    {
      "inputs": [],
      "name": "treasuryAddr",
      "outputs": [
        {
          "internalType": "address",
          "name": "",
          "type": "address"
        }
      ],
      "stateMutability": "view",
      "type": "function"
    },
    {
      "inputs": [
        {
          "internalType": "uint256",
          "name": "_newLimit",
          "type": "uint256"
        }
      ],
      "name": "updateHeroLimit",
      "outputs": [],
      "stateMutability": "nonpayable",
      "type": "function"
    }
  ],
  "bytecode": "0x60a06040819052600060808190526200001b91600791620001bb565b5060016009556040805160608101825260148152601e60208201526032918101919091526200004f90600a9060036200024a565b503480156200005d57600080fd5b5060405162002c4938038062002c49833981016040819052620000809162000297565b60408051606081018252600080825260208201818152928201818152815460018101835591805291517f290decd9548b62a8d60345a988386fc84ba6bc95484008f6362f93160ef3e5639091018054935192516001600160401b0316600160901b02600160901b600160d01b031961ffff94909416600160801b026001600160901b03199095166001600160801b0393909316929092179390931791909116179055620001346200012e3390565b62000169565b662386f26fc10000600e55601280546001600160a01b0319166001600160a01b03939093169290921790915560135562000310565b600880546001600160a01b038381166001600160a01b0319831681179093556040519116919082907f8be0079c531659141344cd1fd0a4f28419497f9722a3daafe3b4186f6b6457e090600090a35050565b828054620001c990620002d3565b90600052602060002090601f016020900481019282620001ed576000855562000238565b82601f106200020857805160ff191683800117855562000238565b8280016001018555821562000238579182015b82811115620002385782518255916020019190600101906200021b565b506200024692915062000280565b5090565b826004810192821562000238579160200282015b8281111562000238578251829060ff169055916020019190600101906200025e565b5b8082111562000246576000815560010162000281565b60008060408385031215620002ab57600080fd5b82516001600160a01b0381168114620002c357600080fd5b6020939093015192949293505050565b600181811c90821680620002e857607f821691505b602082108114156200030a57634e487b7160e01b600052602260045260246000fd5b50919050565b61292980620003206000396000f3fe6080604052600436106102305760003560e01c8063715018a61161012e578063a22cb465116100ab578063b8f3c84b1161006f578063b8f3c84b14610697578063c87b56dd146106b7578063d7ff2941146106d7578063e985e9c51461070f578063f2fde38b1461075857600080fd5b8063a22cb46514610619578063a8972f4314610639578063a9059cbb1461064f578063ac02227c1461066f578063b88d4fde1461067757600080fd5b806393a15b32116100f257806393a15b32146104e1578063950102fc1461059457806395d89b41146105c1578063996517cf146105ed578063a035b1fe1461060357600080fd5b8063715018a614610501578063730141551461051657806375e0b00e146105365780637910867b146105565780638da5cb5b1461057657600080fd5b8063292e46ff116101bc5780634978ea9d116101805780634978ea9d1461045f5780634d1461691461047557806361e01356146104ab5780636352211e146104c157806370a08231146104e157600080fd5b8063292e46ff146103ac5780632bd4e8c6146103df57806330d9a62a146103ff57806342842e0e1461041f578063487586971461043f57600080fd5b80630f861611116102035780630f86161114610304578063122275821461032457806318160ddd1461033757806321d801111461035a57806323b872dd1461038c57600080fd5b806301ffc9a71461023557806306fdde031461026a578063081812fc146102aa578063095ea7b3146102e2575b600080fd5b34801561024157600080fd5b506102556102503660046120d1565b610778565b60405190151581526020015b60405180910390f35b34801561027657600080fd5b5060408051808201909152600e81526d2432b9379027232a102a37b5b2b760911b60208201525b6040516102619190612146565b3480156102b657600080fd5b506102ca6102c5366004612159565b6107ca565b6040516001600160a01b039091168152602001610261565b3480156102ee57600080fd5b506103026102fd36600461218e565b610835565b005b34801561031057600080fd5b506011546102ca906001600160a01b031681565b610302610332366004612159565b610911565b34801561034357600080fd5b5061034c610ae7565b604051908152602001610261565b34801561036657600080fd5b5061037a610375366004612159565b610afc565b604051610261969594939291906121b8565b34801561039857600080fd5b506103026103a7366004612238565b610c35565b3480156103b857600080fd5b506103cd6103c7366004612274565b60010190565b60405160ff9091168152602001610261565b3480156103eb57600080fd5b5061034c6103fa366004612159565b610d03565b34801561040b57600080fd5b506012546102ca906001600160a01b031681565b34801561042b57600080fd5b5061030261043a366004612238565b610d1a565b34801561044b57600080fd5b5061034c61045a366004612159565b610e17565b34801561046b57600080fd5b5061034c600f5481565b34801561048157600080fd5b506102ca610490366004612159565b6003602052600090815260409020546001600160a01b031681565b3480156104b757600080fd5b5061034c60095481565b3480156104cd57600080fd5b506102ca6104dc366004612159565b610e4b565b3480156104ed57600080fd5b5061034c6104fc366004612297565b610eb0565b34801561050d57600080fd5b50610302610ef4565b34801561052257600080fd5b506103026105313660046122c8565b610f08565b34801561054257600080fd5b50610255610551366004612159565b610f1c565b34801561056257600080fd5b50610255610571366004612159565b610f51565b34801561058257600080fd5b506008546001600160a01b03166102ca565b3480156105a057600080fd5b506105b46105af366004612297565b610f6e565b6040516102619190612379565b3480156105cd57600080fd5b5060408051808201909152600381526214d39560ea1b602082015261029d565b3480156105f957600080fd5b5061034c60135481565b34801561060f57600080fd5b5061034c600e5481565b34801561062557600080fd5b506103026106343660046123bd565b611098565b34801561064557600080fd5b5061034c60105481565b34801561065b57600080fd5b5061030261066a36600461218e565b611104565b6103026111e7565b34801561068357600080fd5b506103026106923660046123f9565b6111ff565b3480156106a357600080fd5b506103026106b2366004612159565b61132c565b3480156106c357600080fd5b5061029d6106d2366004612159565b61136f565b3480156106e357600080fd5b506106f76106f2366004612494565b6114ed565b6040516001600160801b039091168152602001610261565b34801561071b57600080fd5b5061025561072a3660046124bd565b6001600160a01b03918216600090815260056020908152604080832093909416825291909152205460ff1690565b34801561076457600080fd5b50610302610773366004612297565b611504565b60006001600160e01b031982166301ffc9a760e01b14806107a957506001600160e01b031982166380ac58cd60e01b145b806107c45750635b5e139f60e01b6001600160e01b03198316145b92915050565b60008054829081106108145760405162461bcd60e51b815260206004820152600e60248201526d1a5b9d985b1a59081a195c9bd25960921b60448201526064015b60405180910390fd5b6000838152600360205260409020546001600160a01b031691505b50919050565b80610857816000908152600160205260409020546001600160a01b0316331490565b80610866575061086681610f51565b80610875575061087581610f1c565b6108915760405162461bcd60e51b815260040161080b906124f0565b6001600160a01b0383166108b75760405162461bcd60e51b815260040161080b90612531565b60008281526003602052604080822080546001600160a01b0319166001600160a01b0387169081179091559051849233917f8c5be1e5ebec7d5bd14f71427d1e84f3dd0314c0f7b2291e5b200ac8c7c3b9259190a4505050565b601354600054600190610925908490612570565b61092f9190612588565b111561096d5760405162461bcd60e51b815260206004820152600d60248201526c4e6f206d6f726520736565647360981b604482015260640161080b565b600a8111156109ca5760405162461bcd60e51b8152602060048201526024808201527f596f752063616e206f6e6c79206d696e7420313020706572207472616e7361636044820152633a34b7b760e11b606482015260840161080b565b80600e546109d8919061259f565b3414610a1f5760405162461bcd60e51b81526020600482015260166024820152754e6f74207468652061636375726174652076616c756560501b604482015260640161080b565b33600090815260026020526040902054606490610a3d908390612570565b1115610a9f5760405162461bcd60e51b815260206004820152602b60248201527f53656c656374206c657373204e4654732c20596f75277665207265616368656460448201526a081e5bdd5c881b1a5b5a5d60aa1b606482015260840161080b565b60125460405134916001600160a01b03169082156108fc029083906000818181858888f19350505050158015610ad9573d6000803e3d6000fd5b50610ae38261157a565b5050565b60008054610af790600190612588565b905090565b6000806000610b09612003565b6000805481908710610b4e5760405162461bcd60e51b815260206004820152600e60248201526d125b9d985b1a590812195c9bd25960921b604482015260640161080b565b610b56612003565b6000808981548110610b6a57610b6a6125be565b600091825260208220018054909250610b8b906001600160801b0316611749565b905060005b600e8111610be0578181600f8110610baa57610baa6125be565b60200201518482600f8110610bc157610bc16125be565b60ff909216602092909202015280610bd8816125d4565b915050610b90565b5050546000898152600160205260409020549899600160801b820461ffff16996001600160801b0383169950929750600160901b90910467ffffffffffffffff1695506001600160a01b039091169350915050565b80610c57816000908152600160205260409020546001600160a01b0316331490565b80610c665750610c6681610f51565b80610c755750610c7581610f1c565b610c915760405162461bcd60e51b815260040161080b906124f0565b826001600160a01b038116610cb85760405162461bcd60e51b815260040161080b906125ef565b6000838152600160205260409020546001600160a01b03868116911614610cf15760405162461bcd60e51b815260040161080b90612615565b610cfc85858561190e565b5050505050565b600a8160048110610d1357600080fd5b0154905081565b80610d3c816000908152600160205260409020546001600160a01b0316331490565b80610d4b5750610d4b81610f51565b80610d5a5750610d5a81610f1c565b610d765760405162461bcd60e51b815260040161080b906124f0565b826001600160a01b038116610d9d5760405162461bcd60e51b815260040161080b906125ef565b6001600160a01b038516610dc35760405162461bcd60e51b815260040161080b90612531565b6000838152600160205260409020546001600160a01b03868116911614610dfc5760405162461bcd60e51b815260040161080b90612615565b610cfc858585604051806020016040528060008152506119f8565b60008060008381548110610e2d57610e2d6125be565b600091825260209091200154600160801b900461ffff169392505050565b6000805482908110610e905760405162461bcd60e51b815260206004820152600e60248201526d1a5b9d985b1a59081a195c9bd25960921b604482015260640161080b565b6000838152600160205260409020546001600160a01b03165b9392505050565b60006001600160a01b038216610ed85760405162461bcd60e51b815260040161080b90612531565b506001600160a01b031660009081526002602052604090205490565b610efc611a64565b610f066000611abe565b565b610f10611a64565b610f1981611b10565b50565b6000818152600160209081526040808320546001600160a01b031683526005825280832033845290915281205460ff166107c4565b6000908152600360205260409020546001600160a01b0316331490565b60606001600160a01b038216610f965760405162461bcd60e51b815260040161080b90612531565b6001600160a01b03821660009081526002602052604090205480610fce5760408051600080825260208201909252905b509392505050565b60008167ffffffffffffffff811115610fe957610fe96122b2565b604051908082528060200260200182016040528015611012578160200160208202803683370190505b509050600160005b83811080611029575060005482105b1561108e576000828152600160205260409020546001600160a01b038781169116141561107c5781838281518110611063576110636125be565b6020908102919091010152611079600182612570565b90505b611087600183612570565b915061101a565b5090949350505050565b3360008181526005602090815260408083206001600160a01b03871680855290835292819020805460ff191686151590811790915590519081529192917f17307eab39ab6107e8899845ad3d59bd9653f200f220920489ca2b5937696c31910160405180910390a35050565b80611126816000908152600160205260409020546001600160a01b0316331490565b80611135575061113581610f51565b80611144575061114481610f1c565b6111605760405162461bcd60e51b815260040161080b906124f0565b826001600160a01b0381166111875760405162461bcd60e51b815260040161080b906125ef565b6001600160a01b0384163014156111d65760405162461bcd60e51b8152602060048201526013602482015272746f20636f6e7472616374206164647265737360681b604482015260640161080b565b6111e133858561190e565b50505050565b60135460005460059190600190610925908490612570565b82611221816000908152600160205260409020546001600160a01b0316331490565b80611230575061123081610f51565b8061123f575061123f81610f1c565b61125b5760405162461bcd60e51b815260040161080b906124f0565b846001600160a01b0381166112825760405162461bcd60e51b815260040161080b906125ef565b6001600160a01b0387166112a85760405162461bcd60e51b815260040161080b90612531565b6000858152600160205260409020546001600160a01b038881169116146112e15760405162461bcd60e51b815260040161080b90612615565b61132387878787878080601f0160208091040260200160405190810160405280939291908181526020018383808284376000920191909152506119f892505050565b50505050505050565b611334611a64565b60138190556040518181527fe1e1c8251499b303aefb01cf84a5ce22a95911c20ce2f3f5ae670441a6353d829060200160405180910390a150565b6000818152600160205260409020546060906001600160a01b03166113ee5760405162461bcd60e51b815260206004820152602f60248201527f4552433732314d657461646174613a2055524920717565727920666f72206e6f60448201526e3732bc34b9ba32b73a103a37b5b2b760891b606482015260840161080b565b600082815260066020526040812080546114079061264c565b80601f01602080910402602001604051908101604052809291908181526020018280546114339061264c565b80156114805780601f1061145557610100808354040283529160200191611480565b820191906000526020600020905b81548152906001019060200180831161146357829003601f168201915b505050505090506000611491611b64565b90508051600014156114a4575092915050565b8151156114d65780826040516020016114be929190612681565b60405160208183030381529060405292505050919050565b505060408051602081019091526000815292915050565b6000806114f983611bf6565b61ffff169392505050565b61150c611a64565b6001600160a01b0381166115715760405162461bcd60e51b815260206004820152602660248201527f4f776e61626c653a206e6577206f776e657220697320746865207a65726f206160448201526564647265737360d01b606482015260840161080b565b610f1981611abe565b423360005b838160ff1610156111e1576000805b60108160ff1610156115e557600980549060006115aa836125d4565b909155506115bb9050816064612794565b6115c482611cfa565b60ff166115d1919061259f565b6115db9083612570565b915060010161158e565b5060006115f1826114ed565b604080516060810182526001600160801b03808616825261ffff8085166020840190815267ffffffffffffffff808c16958501958652600080546001818101835582805287517f290decd9548b62a8d60345a988386fc84ba6bc95484008f6362f93160ef3e563909201805495519951909416600160901b0267ffffffffffffffff60901b1999909616600160801b0271ffffffffffffffffffffffffffffffffffff199095169190961617929092179590951691909117909355825493945090926116bd9190612588565b604080516001600160a01b03891681526020810183905267ffffffffffffffff8a168183015290519192507f0daf7ac1b87c979757d9cdd2cb267a7dda41f89875b1829ace2794e3750ca8a4919081900360600190a161171f6000878361190e565b6009805490600061172f836125d4565b9190505550505050506117428160010190565b905061157f565b611751612003565b604080516101e081018252600080825260208201819052918101829052606081018290526080810182905260a0810182905260c0810182905260e08101829052610100810182905261012081018290526101408101829052610160810182905261018081018290526101a081018290526101c08101919091526117d2612003565b600160006117e86001600160801b038716611da4565b9050601f815110156118325760405162461bcd60e51b8152602060048201526013602482015272151a1a5cc8191b98481a5cc81a5b9d985b1a59606a1b604482015260640161080b565b60005b600f8160ff1610156118895782848260ff16600f8110611857576118576125be565b6001600160801b0390921660209290920201526118758360646127a3565b925080611881816127d2565b915050611835565b5060005b600f8160ff1610156119035760006064858360ff16600f81106118b2576118b26125be565b60200201516118c1908a612808565b6118cb919061282e565b905080868360ff16600f81106118e3576118e36125be565b60ff909216602092909202015250806118fb816127d2565b91505061188d565b509295945050505050565b600081815260016020818152604080842080546001600160a01b0319166001600160a01b038816908117909155845260029091529091205461194f91612570565b6001600160a01b038084166000908152600260205260409020919091558316156119b2576001600160a01b03831660009081526002602052604090205461199890600190612588565b6001600160a01b0384166000908152600260205260409020555b80826001600160a01b0316846001600160a01b03167fddf252ad1be2c89b69c2b068fc378daa952ba7f163c4a11628f55a4df523b3ef60405160405180910390a4505050565b6001600160a01b038316611a1e5760405162461bcd60e51b815260040161080b90612531565b6001600160a01b038416611a445760405162461bcd60e51b815260040161080b90612531565b611a5084848484611e39565b611a5957600080fd5b6111e184848461190e565b6008546001600160a01b03163314610f065760405162461bcd60e51b815260206004820181905260248201527f4f776e61626c653a2063616c6c6572206973206e6f7420746865206f776e6572604482015260640161080b565b600880546001600160a01b038381166001600160a01b0319831681179093556040519116919082907f8be0079c531659141344cd1fd0a4f28419497f9722a3daafe3b4186f6b6457e090600090a35050565b6000815111611b515760405162461bcd60e51b815260206004820152600d60248201526c125b9d985b1a5908125b9c1d5d609a1b604482015260640161080b565b8051610ae3906007906020840190612022565b606060078054611b739061264c565b80601f0160208091040260200160405190810160405280929190818152602001828054611b9f9061264c565b8015611bec5780601f10611bc157610100808354040283529160200191611bec565b820191906000526020600020905b815481529060010190602001808311611bcf57829003601f168201915b5050505050905090565b6000806001611c03612003565b60005b600f8160ff161015611c505782828260ff16600f8110611c2857611c286125be565b6001600160801b039092166020929092020152611c468360646127a3565b9250600101611c06565b5060005b600f8160ff161015611cf05760006064838360ff16600f8110611c7957611c796125be565b6020020151611c889089612808565b611c92919061282e565b6001600160801b0316905080611cdb5760405162461bcd60e51b815260206004820152600e60248201526d11d95b9cc81a5b98dbdc9c9958dd60921b604482015260640161080b565b611ce58186612854565b945050600101611c54565b5091949350505050565b6009546000805460408051436020820152449181019190915233606090811b6bffffffffffffffffffffffff191690820152607481019390935260f884901b6001600160f81b0319166094840152609583015290819060649060b5016040516020818303038152906040528051906020012060001c611d799190612871565b90506000611d88600a83612885565b905060008115611d985781611d9b565b600a5b95945050505050565b60606000611db183611ef6565b600101905060008167ffffffffffffffff811115611dd157611dd16122b2565b6040519080825280601f01601f191660200182016040528015611dfb576020820181803683370190505b5090508181016020015b600019016f181899199a1a9b1b9c1cb0b131b232b360811b600a86061a8153600a8504945084611e3457610fc6565b611e05565b6000611e4484611fce565b611e5057506001611eee565b604051630a85bd0160e11b81526000906001600160a01b0386169063150b7a0290611e859033908a9089908990600401612899565b602060405180830381600087803b158015611e9f57600080fd5b505af1158015611eb3573d6000803e3d6000fd5b505050506040513d601f19601f82011682018060405250810190611ed791906128d6565b6001600160e01b031916630a85bd0160e11b149150505b949350505050565b60008072184f03e93ff9f4daa797ed6e38ed64bf6a1f0160401b8310611f355772184f03e93ff9f4daa797ed6e38ed64bf6a1f0160401b830492506040015b6d04ee2d6d415b85acef81000000008310611f61576d04ee2d6d415b85acef8100000000830492506020015b662386f26fc100008310611f7f57662386f26fc10000830492506010015b6305f5e1008310611f97576305f5e100830492506008015b6127108310611fab57612710830492506004015b60648310611fbd576064830492506002015b600a83106107c45760010192915050565b60006001600160a01b038216611ff65760405162461bcd60e51b815260040161080b90612531565b503b63ffffffff16151590565b604051806101e00160405280600f906020820280368337509192915050565b82805461202e9061264c565b90600052602060002090601f0160209004810192826120505760008555612096565b82601f1061206957805160ff1916838001178555612096565b82800160010185558215612096579182015b8281111561209657825182559160200191906001019061207b565b506120a29291506120a6565b5090565b5b808211156120a257600081556001016120a7565b6001600160e01b031981168114610f1957600080fd5b6000602082840312156120e357600080fd5b8135610ea9816120bb565b60005b838110156121095781810151838201526020016120f1565b838111156111e15750506000910152565b600081518084526121328160208601602086016120ee565b601f01601f19169290920160200192915050565b602081526000610ea9602083018461211a565b60006020828403121561216b57600080fd5b5035919050565b80356001600160a01b038116811461218957600080fd5b919050565b600080604083850312156121a157600080fd5b6121aa83612172565b946020939093013593505050565b600061028082019050878252602061ffff8816818401526001600160801b0387166040840152606083018660005b600f81101561220657815160ff16835291830191908301906001016121e6565b5050505067ffffffffffffffff939093166102408201526001600160a01b039190911661026090910152949350505050565b60008060006060848603121561224d57600080fd5b61225684612172565b925061226460208501612172565b9150604084013590509250925092565b60006020828403121561228657600080fd5b813560ff81168114610ea957600080fd5b6000602082840312156122a957600080fd5b610ea982612172565b634e487b7160e01b600052604160045260246000fd5b6000602082840312156122da57600080fd5b813567ffffffffffffffff808211156122f257600080fd5b818401915084601f83011261230657600080fd5b813581811115612318576123186122b2565b604051601f8201601f19908116603f01168101908382118183101715612340576123406122b2565b8160405282815287602084870101111561235957600080fd5b826020860160208301376000928101602001929092525095945050505050565b6020808252825182820181905260009190848201906040850190845b818110156123b157835183529284019291840191600101612395565b50909695505050505050565b600080604083850312156123d057600080fd5b6123d983612172565b9150602083013580151581146123ee57600080fd5b809150509250929050565b60008060008060006080868803121561241157600080fd5b61241a86612172565b945061242860208701612172565b935060408601359250606086013567ffffffffffffffff8082111561244c57600080fd5b818801915088601f83011261246057600080fd5b81358181111561246f57600080fd5b89602082850101111561248157600080fd5b9699959850939650602001949392505050565b6000602082840312156124a657600080fd5b81356001600160801b0381168114610ea957600080fd5b600080604083850312156124d057600080fd5b6124d983612172565b91506124e760208401612172565b90509250929050565b60208082526021908201527f73656e646572206e6f74206865726f206f776e6572204f5220617070726f76656040820152601960fa1b606082015260800190565b6020808252600f908201526e496e76616c6964204164647265737360881b604082015260600190565b634e487b7160e01b600052601160045260246000fd5b600082198211156125835761258361255a565b500190565b60008282101561259a5761259a61255a565b500390565b60008160001904831182151516156125b9576125b961255a565b500290565b634e487b7160e01b600052603260045260246000fd5b60006000198214156125e8576125e861255a565b5060010190565b6020808252600c908201526b7a65726f206164647265737360a01b604082015260600190565b6020808252601b908201527f66726f6d2061646472657373206e6f74206865726f206f776e65720000000000604082015260600190565b600181811c9082168061266057607f821691505b6020821081141561082f57634e487b7160e01b600052602260045260246000fd5b600083516126938184602088016120ee565b8351908301906126a78183602088016120ee565b01949350505050565b600181815b808511156126eb5781600019048211156126d1576126d161255a565b808516156126de57918102915b93841c93908002906126b5565b509250929050565b600082612702575060016107c4565b8161270f575060006107c4565b8160018114612725576002811461272f5761274b565b60019150506107c4565b60ff8411156127405761274061255a565b50506001821b6107c4565b5060208310610133831016604e8410600b841016171561276e575081810a6107c4565b61277883836126b0565b806000190482111561278c5761278c61255a565b029392505050565b6000610ea960ff8416836126f3565b60006001600160801b03808316818516818304811182151516156127c9576127c961255a565b02949350505050565b600060ff821660ff8114156127e9576127e961255a565b60010192915050565b634e487b7160e01b600052601260045260246000fd5b60006001600160801b0380841680612822576128226127f2565b92169190910492915050565b60006001600160801b0380841680612848576128486127f2565b92169190910692915050565b600061ffff8083168185168083038211156126a7576126a761255a565b600082612880576128806127f2565b500690565b600082612894576128946127f2565b500490565b6001600160a01b03858116825284166020820152604081018390526080606082018190526000906128cc9083018461211a565b9695505050505050565b6000602082840312156128e857600080fd5b8151610ea9816120bb56fea264697066735822122016e774ba1c7b341ddfdf810a46482afe1d8ff0cdbe14fd5b805e11271ef207f664736f6c63430008090033",
  "linkReferences": {},
  "deployedLinkReferences": {}
}